:020000040800F2
:1000000000060220010200080302000803020008A3
:1000100003020008030200080302000803020008AC
:10002000030200080302000803020008C5370008A5
:10003000030200080302000803020008030200088C
:10004000030200080302000803020008030200087C
:100050000302000803020008693A0008913A000808
:10006000B93A0008E13A0008093B00080302000819
:10007000030200080302000803020008030200084C
:10008000030200080302000803020008030200083C
:10009000030200080302000803020008313B0008C5
:1000A000030200080302000803020008030200081C
:1000B000193C0008030200080302000803020008BC
:1000C00003020008030200080302000803020008FC
:1000D00003020008030200080302000803020008EC
:1000E000953B000803020008030200080302000811
:1000F00003020008030200080302000803020008CC
:1001000003020008030200080302000803020008BB
:1001100003020008030200080302000803020008AB
:10012000030200080302000803020008030200089B
:10013000030200080302000803020008030200088B
:10014000030200080302000803020008692F0008E8
:10015000030200080302000803020008030200086B
:10016000030200080302000803020008030200085B
:10017000030200080302000803020008030200084B
:100180000302000803020008053C000803020008FF
:10019000030200080302000803020008030200082B
:1001A000030200080302000803020008030200081B
:1001B000030200080302000803020008030200080B
:1001C00003020008030200080302000803020008FB
:1001D00003020008030200080302000803020008EB
:1001E00003020008030200080302000803020008DB
:1001F00003020008030200080302000803020008CB
:1002000002E000F000F8FEE772B6374880F3088895
:10021000364880F3098836483649086040F20000C5
:10022000CCF200004EF63471CEF200010860BFF34C
:100230004F8FBFF36F8F40F20000C0F2F0004EF618
:100240008851CEF200010860BFF34F8FBFF36F8F6C
:100250004FF00000E1EE100A4EF63C71CEF20001C4
:100260000860062080F31488BFF36F8F02F0E0FA75
:1002700003F03CFA4FF055301F491B4A91423CBFF6
:1002800041F8040BFAE71D49184A91423CBF41F876
:10029000040BFAE71A491B4A1B4B9A423EBF51F81E
:1002A000040B42F8040BF8E700201849184A914261
:1002B0003CBF41F8040BFAE702F0F8FA03F074FAD5
:1002C000144C154DAC4203DA54F8041B8847F9E787
:1002D00000F0A0F8114C124DAC4203DA54F8041BA4
:1002E0008847F9E702F0E0BA000602200022022067
:1002F0000000000808ED00E00000022000060220D7
:1003000018400008002202206422022068220220F5
:100310003835022000020008000200080002000830
:10032000000200082DE9F04F2DED108AC1F80CD025
:10033000D0F80CD0BDEC108ABDE8F08F002383F319
:1003400011882846A047002001F02EFEFEE701F0AC
:10035000BDFD00DFFEE7000080EA0102844612F0E6
:10036000030F4FD111F0030F32D14DF8044D11F0AE
:10037000040F51F8043B0BD0A3F101329A4312F061
:10038000803F04BF4CF8043B51F8043B16D100BF3A
:1003900051F8044BA3F101329A4312F0803FA4F1CB
:1003A00001320BD14CF8043BA24312F0803F04BF52
:1003B00051F8043B4CF8044BEAD023460CF8013BBF
:1003C00013F0FF0F4FEA3323F8D15DF8044B704769
:1003D00011F0010F06D011F8012B0CF8012B002AA7
:1003E00008BF704711F0020FBFD031F8022B12F096
:1003F000FF0F16BF2CF8022B8CF8002012F47F4F51
:10040000B3D1704711F8012B0CF8012B002AF9D158
:10041000704700BF38B500F007FC02F0C9F9054687
:1004200002F0FCF90446C0B90E4B9D4218D00133CE
:100430009D4241F2883512BF044600250124002068
:1004400002F0C0F90CB100F075F800F047FD284645
:1004500000F0FAF800F06EF8F9E700250124EEE765
:100460000546ECE7010007B008B500F0ABFBA0F1D2
:1004700020035842584108BD07B541F2120302213A
:1004800001A8ADF8043000F0B9FB03B05DF804FB3F
:1004900038B5302383F31188174803680BB101F096
:1004A0004FFE0023154A4FF47A71134801F03EFEC7
:1004B000002383F31188124C236813B12368013B96
:1004C0002360636813B16368013B63600D4D2B7853
:1004D00033B963687BB9022000F070FC322363609B
:1004E0002B78032B07D163682BB9022000F066FC40
:1004F0004FF47A73636038BD7823022091040008BA
:100500006C23022074230220084B187003280CD897
:10051000DFE800F008050208022000F045BC0220D8
:1005200000F038BC024B00225A607047742302204E
:100530006C230220F8B53F4B3F4A1C461968013135
:1005400077D004339342F9D16268A24271D33B4B16
:100550009B6803F1006303F5C0339A4269D200201F
:1005600000F07CFB0220FFF7CFFF354B00211A6C17
:1005700019641A6E19661A6E5A6C59645A6E596665
:100580005A6E5A6942F080025A615A6922F080021A
:100590005A615A691A6942F000521A611A6922F0C6
:1005A00000521A611B6972B64FF0E023C3F8084D80
:1005B000D4E90004BFF34F8FBFF36F8F214AC2F815
:1005C0008410BFF34F8F536923F480335361BFF31B
:1005D0004F8FD2F8803043F6E076C3F3C905C3F3FA
:1005E0004E335B0103EA060C29464CEA8177013958
:1005F000C2F87472F9D2203B13F1200FF2D1BFF38D
:100600004F8FBFF36F8FBFF34F8FBFF36F8F536960
:1006100023F4003353610023C2F85032BFF34F8FED
:10062000BFF36F8F302383F31188854680F30888EA
:100630002047F8BD00800108208001080022022028
:100640000038024000ED00E02DE9F04F95B0DFF8F2
:10065000DCB22022FF2101900CA8DBF8086000F03A
:10066000E7FBAD4A1378A3B90121AC4811700360D0
:10067000302383F3118803680BB101F061FD00237F
:10068000A74A4FF47A71A54801F050FD002383F387
:100690001188019B13B1A34B019A1A60A24A1378E7
:1006A000032B03D0002313709E4A53604FF00009C0
:1006B000019DCA464C46C846012000F075FB25B195
:1006C000984B1B68002B00F01982002000F07AFA8A
:1006D0000590059B002BF2DB012000F05BFB059BE6
:1006E000213B1F2BE8D801A252F823F06D07000828
:1006F0009507000827080008B9060008B906000891
:10070000B9060008AD0800086D0A0008870900084E
:10071000E9090008110A0008370A0008B9060008AC
:10072000490A0008B9060008BB0A00080B080008BF
:10073000B9060008030B0008790700080B08000839
:10074000B9060008E9090008B9060008B90600085A
:10075000B9060008B9060008B9060008B90600087D
:10076000B9060008B9060008270800080220FFF7AC
:100770007BFE002840F00581019BB9F1000F08BF06
:100780001D4641F21233022107A8ADF81C3000F0DB
:1007900035FA91E74FF47A7000F014FA071EEBDB9C
:1007A0000220FFF761FE0028E6D0013F052F00F28E
:1007B000D081DFE807F0030A0D101335052304216B
:1007C00007A8079300F01AFA17E004215748F9E741
:1007D00004215748F6E704215648F3E74FF01C0878
:1007E000404608F1040800F03BFA0421079007A8EE
:1007F00000F004FAB8F12C0FF2D101234FF00008F9
:10080000BB404AEA03035FFA83FA00F05DFB24B1C0
:100810000AF00B030B2B08BF0025FFF72DFE4BE75B
:1008200004214548CEE7002CA6D00AF00B030B2B81
:100830005ED10220FFF718FE0446002858D00120A0
:10084000002700F00BFA0220FFF75EFE1FFA87F97F
:10085000484600F013FA054688B9334B01222E466C
:1008600002201A7000F096FADBF80830B34216D86E
:1008700000262D4BA1461E702A4B5E60C5E70599E8
:1008800048460137A1F140025142514100F006FAB9
:1008900005460028DAD1A14641F2121373E730462B
:1008A00000F0DEF90130F6D10436DDE7002C3FF42C
:1008B00063AF0AF00B030B2B1AD10220FFF724FEC3
:1008C000322000F07FF9071E12DB17F003030FD16F
:1008D000BA19DBF808108A420AD8B7F5807F07D822
:1008E000164A9F4206DCC820FFF7BEFD044638BB0F
:1008F000012441E74FF47A70CDE9023200F062F949
:10090000059005990029FFF637AF0599039A029BD8
:1009100002F8011B0133E4E7682302207823022058
:10092000910400086C23022074230220002202207C
:1009300004220220082202200C2202206822022027
:100940001F2E11D8C6F120020CAB26F003008249FD
:10095000BA42184428BF3A46029200F049FA029A75
:10096000FF217D4800F064FABB10C7F387027A4983
:100970003046029300F064FA00288DD0029B06EB0B
:100980008306044641E70220FFF76EFD00283FF48E
:10099000F3AE00F0AFF900283FF4EEAE00273B467F
:1009A00012E01F2F1AD80C9A013217D027F0030239
:1009B00050326A4452F8200C07900422184607A9C6
:1009C00000F0ECFA04370346DBF80820BA42E8D816
:1009D0000793042107A800F011F916E7384602939F
:1009E00000F03EF9029BE7E70023642106A8069386
:1009F00000F0FCF800287FF4BFAE0220FFF734FDC2
:100A000000283FF4B9AE069800F05CF90790E0E7E3
:100A10000023642106A8069300F0E8F800287FF47C
:100A2000ABAE0220FFF720FD00283FF4A5AE0698EC
:100A300000F058F9EAE70220FFF716FD00283FF41E
:100A40009BAE00F067F9E1E70220FFF70DFD0028FB
:100A50003FF492AE07A9142000F062F90746042182
:100A6000069006A800F0CAF83946B3E7322000F035
:100A7000A9F8071EFFF680AEBB077FF47DAE07EB3B
:100A80000803DBF8082093423FF676AE0220FFF71A
:100A9000EBFC00283FF470AE27F003074744B8454D
:100AA0003FF4B3AE404608F1040800F0D9F8042141
:100AB000079007A800F0A2F8F1E74FF47A70FFF76B
:100AC000D3FC00283FF458AE00F014F900283FF49E
:100AD000E3AE0C9B01330CD008220CA9002000F0DF
:100AE000AFF900283FF4D8AE2022FF210CA800F077
:100AF0009FF9FFF7C1FC194801F05CFA15B0BDE899
:100B0000F08F002C3FF438AE0AF00B030B2B7FF470
:100B100033AE0023642107A8079300F067F8074667
:100B200000287FF429AE0220FFF79EFC02900028E7
:100B30003FF422AEFFF7A0FC41F2883001F03AFA10
:100B4000079800F009FA3D4600F0BEF9029B1C46EA
:100B5000B2E54FF000080FE668220220A0860100EF
:100B60002DE9F0474FF47A7706460D4600245743A7
:100B7000DFF84880DFF8489098F900305A1C01D01F
:100B8000A34211D159F824002A4631460368D3F80C
:100B900020A03B46D047854206D1074B01201C7060
:100BA000BDE8F0870124E7E7002CFBD04FF4FA7092
:100BB00001F000FA0020F3E7C023022010220220F7
:100BC00014220220002307B5024601210DF107007F
:100BD0008DF80730FFF7C4FF20B19DF8070003B080
:100BE0005DF804FB4FF0FF30F9E700000A460421EE
:100BF00008B5FFF7B5FF013808BD0000074B0A46EE
:100C000030B419780546064B53F82100294603688D
:100C1000DC69044BA44630BC604700BFC0230220FF
:100C200014220220A086010070B50A4E00250A4C4D
:100C300001F0C8FC308020683388834208D901F075
:100C4000BBFC236805440133B5F5C03F2360F2D3F4
:100C500070BD00BFB8230220BC23022001F05CBDA0
:100C600000F1006000F5C0300068704700F10060DE
:100C7000920000F5C03001F0EBBC0000054B1A6893
:100C8000054B1B889B1A834202D9104401F094BC87
:100C900000207047BC230220B823022038B5084D3D
:100CA0000446286829B128682044BDE8384001F08E
:100CB000A3BC204401F088FC0028F4D038BD00BF5C
:100CC000BC230220034610F0030008D1B3F5846F63
:100CD00006D203F10053A3F5712318687047002072
:100CE0007047000000F10050A0F57120D0F82004FA
:100CF00070470000064991F8243033B100230822E0
:100D0000086A81F82430FFF7B1BF0120704700BFA7
:100D100090230220014B1868704700BF002004E0B8
:100D20001A4B013870B51A6804240B181848C2F31E
:100D30000B05120C013C0CD19942084614D3B2F5B4
:100D4000805F1AD1984202D2412300F8013B401A39
:100D500070BD0688AE420ED144680846013C9842F8
:100D6000EDD214F9015F1DB92C2400F8014BE6E720
:100D700000F8015BF3E70830DCE741F20104A2422E
:100D8000E5D19842E3D25A23DFE700BF002004E018
:100D90001C220220022803D1024B4FF080629A618C
:100DA000704700BF000C0240022803D1024B4FF4F1
:100DB00080629A61704700BF000C0240022804D193
:100DC000024A536983F4806353617047000C024008
:100DD00070B504464FF47A7604B970BD412C2546AF
:100DE00028BF412506FB05F0641B01F0E3F8F3E79B
:100DF000002310B5934200D110BDCC5CC454013324
:100E0000F8E70000013810B510F9013F3BB191F946
:100E100000409C4203D11AB10131013AF4E71AB102
:100E200091F90020981A10BD1046FCE7FFF7FEBFAD
:100E300002440346934200D1704703F8011BF9E7CF
:100E40002DE9F8431F4D14460746884695F824209F
:100E500022B9DFF870906CB9012009E02B6A03EB2E
:100E600082038342F5D0FFF745FF0028F1D100202F
:100E7000BDE8F88395F824302BB92022FF2148469D
:100E80002F62FFF7D5FF95F824004146C0F1080214
:100E900005EB8000A24228BF2246D6B29200FFF79F
:100EA000A7FF95F82430A41B17441E449044E4B2D5
:100EB000F6B2082E85F82460CDD1FFF71BFF00287D
:100EC000C9D1D4E790230220024B1A78024B1A7042
:100ED000704700BFC02302201022022038B5194CF1
:100EE000194D204600F0C4FB2946204600F0ECFBDB
:100EF0002D684FF47A70EA6ED2F8043843F002039A
:100F0000C2F80438FFF764FF1049284600F0E4FCFB
:100F1000EA6E0F4DD2F80438286823F002030D4919
:100F2000A042C2F804384FF4E1330B6001D000F066
:100F3000FFFA6868A04204D00649BDE8384000F0D6
:100F4000F7BA38BD482B0220B43D0008BC3D00086C
:100F500014220220C4230220F8B50C4B05460C4E87
:100F60001F780C4B56F827209A420DD00A4C0021CE
:100F700018222046FFF75CFF214656F8270025601F
:100F8000BDE8F84000F0D4BAF8BD00BFC02302208D
:100F900014220220482B0220C423022030B50A4428
:100FA000084D914200D130BD11F8013B5840082353
:100FB00040F30004013B2C4013F0FF0384EA50008F
:100FC000F6D1EEE72083B8ED026843680A43026079
:100FD00003B1184770470000024A136843F0C0038A
:100FE000136070470078004013B50E4C204600F0A7
:100FF00093FA04F1140000234FF480720A4900941C
:1010000000F050F9094B4FF48072094904F138009F
:10101000009400F0C9F9074A074BC4E9172302B04E
:1010200010BD00BFDC250220DC240220D90F0008FF
:10103000DC2302200078004080F93703244B30B5D0
:10104000002914BF0C461C46037C012B0CD1214BFC
:10105000984209D1204B1A6C42F080421A641A6EF1
:1010600042F080421A661B6E2268036EC16D03EB6C
:1010700052038466B3FBF2F36268150442BF23F0A7
:10108000070503F0070343EA4503CB60A36843F079
:1010900040034B60E36843F001038B6042F49673B6
:1010A00043F001030B604FF0FF330B6251050AD58B
:1010B00012F0102209D0B2F1805F14BFFF233F234A
:1010C00080F8643030BDFF23FAE77F23F8E700BFE4
:1010D000343D0008DC250220003802402DE9F047AD
:1010E000C66D04463768F5692A07356219D045F39D
:1010F0000001C5F3C00301F0200141EA0321AB0761
:101100004FF0300348BF41F04001680748BF41F04D
:10111000800183F31188201DFFF756FF002383F31E
:101120001188EA050AD5302383F311884FF48061D2
:10113000201DFFF749FF002383F311884FF030098A
:101140004FF0000A0BE089F31188736A204694F887
:101150006410194000F0FAF98AF31188F56915F066
:101160002008F0D13B0616D54FF0300A04F13809BB
:10117000280610D58AF31188484600F049F900285E
:1011800029DA0821201DFFF71FFF27F080033360B5
:10119000002383F31188790614D56A0612D530230B
:1011A00083F31188D4E913239A4208D1236C33B115
:1011B00027F040071021201DFFF706FF37600023AE
:1011C00083F31188EB060BD5A26E136943B1506906
:1011D000BDE8F0471847B06288F31188F569C7E7A2
:1011E000BDE8F087F8B51546826804460B46AA426A
:1011F00000D28568A1692669761AB5420BD22A46C3
:101200001846FFF7F5FDA2692A44A3682846A261A3
:101210005B1BA360F8BD0CD9AF1B18463246FFF725
:10122000E7FD3A46E1683044FFF7E2FDE368DA198A
:10123000EBE72A461846FFF7DBFDE268E5E700002A
:10124000836893422DE9F04104460E46154600D2CC
:101250008568D4E904703F1ABD420CD22A46314653
:10126000FFF7C6FD62692A44A368284662615B1BDA
:10127000A360BDE8F0810ED9A5EB07083A463146D8
:10128000FFF7B6FD4246F119E068FFF7B1FDE368EC
:1012900003EB0802E8E72A463146FFF7A9FDE268BA
:1012A000E2E7000010B5C1600024C361029B8460C6
:1012B0000362C0E905111144C0E90000016110BDDD
:1012C00008B5D0E90532934201D1826882B98268BB
:1012D000013282605A1C426119700021D0E9043247
:1012E0009A4224BFC368436100F080FE002008BD1D
:1012F0004FF0FF30FBE7000070B5302304460D4689
:1013000083F31188A668A6B1A368A269013BA36014
:10131000531CA36115782269934224BFE368A3613B
:10132000E3690BB120469847002383F311882846D0
:1013300007E02946204600F049FE0028E2DA86F35D
:10134000118870BD2DE9F74F05460F4614469946A2
:10135000D0F81CA04FF0300888F311884FF0000B34
:10136000164666B1324639462846FFF73BFF03462C
:1013700060B94946284600F029FE0028F2D0002333
:1013800083F31188A01B03B0BDE8F08FBAF1000F02
:1013900003D001902846D047019B8BF31188F61AA1
:1013A0001F4488F31188DCE7C160C361009B826041
:1013B0000362C0E905111144C0E9000001617047F2
:1013C000F8B504460D461646302383F31188A76806
:1013D000A7B1A368013BA36063695A1C62611D70D9
:1013E000D4E904329A4224BFE3686361E3690BB134
:1013F00020469847002080F3118807E031462046B8
:1014000000F0E4FD0028E2DA87F31188F8BD00005F
:10141000D0E9052310B59A4201D182687AB9826871
:101420000021013282605A1C82611C7803699A4251
:1014300024BFC368836100F0D9FD204610BD4FF082
:10144000FF30FBE72DE9F74F05460F461446994656
:10145000D0F81CA04FF0300888F311884FF0000B33
:10146000164666B1324639462846FFF7E9FE03467E
:1014700060B94946284600F0A9FD0028F2D00023B3
:1014800083F31188A01B03B0BDE8F08FBAF1000F01
:1014900003D001902846D047019B8BF31188F61AA0
:1014A0001F4488F31188DCE7026843680A4302603E
:1014B00003B11847704700001430FFF743BF000026
:1014C0004FF0FF331430FFF73DBF00003830FFF717
:1014D000B9BF00004FF0FF333830FFF7B3BF000053
:1014E0001430FFF709BF00004FF0FF311430FFF751
:1014F00003BF00003830FFF763BF00004FF0FF323A
:101500003830FFF75DBF0000012914BF6FF01300F2
:1015100000207047FFF768BD044B03600023436061
:10152000C0E9023301230374704700BF4C3D00083B
:1015300010B53023044683F31188FFF77FFD0223A3
:101540000020237480F3118810BD000038B5C369F2
:1015500004460D461BB904210844FFF7A5FF2946A0
:1015600004F11400FFF7ACFE002806DA201D4FF44A
:101570000061BDE83840FFF797BF38BD0268436897
:101580000A43026003B118477047000013B5446B6B
:10159000D4F8A4381A681178042915D1217C0229BD
:1015A00012D11979012312898B4013420CD101A960
:1015B00004F14C0001F058FFD4F8A4480246019B06
:1015C0002179206800F0D6F902B010BD143001F086
:1015D000E1BE00004FF0FF33143001F0DBBE00002D
:1015E0004C3001F0ADBF00004FF0FF334C3001F044
:1015F000A7BF0000143001F0AFBE00004FF0FF3174
:10160000143001F0A9BE00004C3001F079BF000099
:101610004FF0FF324C3001F073BF000000207047E4
:10162000D0F8A4381A6810B511780446042917D1E7
:10163000017C022914D15979012352898B4013422C
:101640000ED1143001F042FE024648B1D4F8A4088D
:101650004FF4807341790068BDE8104000F078B91C
:1016600010BD0000406BFFF7DBBF000070470000BB
:101670007FB5124B01250426044603600023057440
:1016800000F1840243602946C0E902330C4B02900A
:10169000143001934FF48073009601F0F3FD094B71
:1016A00004F29442294604F14C000294CDE900630F
:1016B0004FF4807301F0B4FE04B070BD743D0008B7
:1016C000651600088D1500080B68302282F311881A
:1016D0000A7903EB820210624A790D3243F8220044
:1016E0008A7912B103EB820318620223C0F8A418AE
:1016F0000374002080F311887047000038B5037F21
:10170000044613B190F85430ABB90125201D0221D5
:10171000FFF734FF04F114006FF00101257700F0AA
:1017200071FC04F14C0084F854506FF00101BDE8E5
:10173000384000F067BC38BD10B5012104460430C4
:10174000FFF71CFF0023237784F8543010BD0000FE
:1017500038B504460025143001F0ACFD04F14C000E
:10176000257701F075FE201D84F854500121FFF704
:1017700005FF2046BDE83840FFF752BF90F85C20D7
:10178000034602F06002202A14D190F85D20002068
:10179000212A02D81F2A03D87047222A07D070476F
:1017A000054A1A6507225A65986501207047C3E902
:1017B0001400F9E70020704734220220D0F8A43842
:1017C00037B51A680446117804291AD1017C022918
:1017D00017D11979012312898B40134211D100F1DD
:1017E0004C05284601F0F2FE58B101A9284601F047
:1017F0003BFED4F8A4480246019B2179206800F002
:10180000B9F803B030BD000000EB8103F7B51E6AE4
:1018100004460D46F6B1302383F3118804EB8507A7
:10182000301D08214C36FFF7A9FEFB685B691B6879
:1018300013B1304601F026FE01A9304601F014FE36
:10184000024648B1019B2946204600F093F8002348
:1018500083F3118803B0F0BDFB685A691268002A4F
:10186000F5D01B8A013B1340F1D104F15C02EAE799
:101870000D3138B550F82140DCB1302383F31188A5
:10188000D4F8A4281368527903EB8203DB689B69C0
:101890005D6845B104216018FFF770FE294604F128
:1018A000140001F01DFD2046FFF7BAFE002383F36C
:1018B000118838BD7047000001F07CB80123282250
:1018C000002110B5044600F8243BFFF7B1FA0023CD
:1018D000C4E9013310BD000038B50446302383F35A
:1018E000118800254160C0E90355C0E90555C0E9EC
:1018F000075501F06FF80223237085F311882846FD
:1019000038BD000070B500EB8103054650690E46F6
:101910001446DA6018B110220021FFF789FAA06995
:1019200018B110220021FFF783FA31462846BDE89E
:10193000704001F019B90000826802F00112826063
:101940000022C0E90422C0E90622026201F096B931
:10195000F0B4012500EB810447898D40E4683D43E4
:10196000A469458123600023A2606360F0BC01F09C
:10197000B1B90000F0B4012500EB810407898D4066
:10198000E4683D436469058123600023A2606360CD
:10199000F0BC01F029BA000070B50223002504460E
:1019A00003704566056280F84C50C0E90255C0E9F5
:1019B0000455C0E9065501F073F863681B6823B14C
:1019C00029462046BDE87040184770BD0378052BB6
:1019D00010B504460AD080F86830052303704368C8
:1019E0001B680BB1042198470023A36010BD0000C1
:1019F0000178052906D190F86820436802701B68B9
:101A000003B118477047000070B590F84C30044699
:101A100013B1002380F84C3004F15C02204601F041
:101A20004FF963689B68B3B994F85C3013F06005B4
:101A300035D00021204601F0F1FB0021204601F0C5
:101A4000E3FB63681B6813B1062120469847062311
:101A500084F84C3070BD204698470028E4D0B4F894
:101A60006230626D9A4288BF636594F95C30656D3F
:101A7000002B4FF0300380F20381002D00F0F28044
:101A8000092284F84C2083F3118800212046D4E9F0
:101A90001423FFF76FFF002383F31188DAE794F82C
:101AA0005D2003F07F0343EA022340F202329342B7
:101AB00000F0C58021D8B3F5807F48D00DD8012B28
:101AC0003FD0022B00F09380002BB2D104F16402CE
:101AD000226502226265A365C1E7B3F5817F00F04C
:101AE0009B80B3F5407FA4D194F85E30012BA0D148
:101AF000B4F8643043F0020332E0B3F5006F4DD028
:101B000017D8B3F5A06F31D0A3F5C063012B90D8DF
:101B10006368204694F85E205E6894F85F10B4F81D
:101B20006030B047002884D043682365036863654C
:101B30001AE0B3F5106F36D040F6024293427FF4BC
:101B400078AF5C4B2365022363650023C3E794F8F9
:101B50005E30012B7FF46DAFB4F8643023F00203E4
:101B6000A4F86430C4E91455A56578E7B4F85C308E
:101B7000B3F5A06F0ED194F85E30204684F866303D
:101B800000F0E6FF63681B6813B101212046984707
:101B9000032323700023C4E914339CE704F1670393
:101BA00023650123C3E72378042B10D1302383F36B
:101BB00011882046FFF7C0FE85F311880321636872
:101BC00084F8675021701B680BB12046984794F841
:101BD0005E30002BDED084F8673004232370636806
:101BE0001B68002BD6D0022120469847D2E794F8F4
:101BF000603020461D0603F00F010AD501F052F8AF
:101C0000012804D002287FF414AF2B4B9AE72B4B0A
:101C100098E701F039F8F3E794F85E30002B7FF491
:101C200008AF94F8603013F00F01B3D01A062046C5
:101C300002D501F007FBADE701F0FAFAAAE794F844
:101C40005E30002B7FF4F5AE94F8603013F00F0196
:101C5000A0D01B06204602D501F0E0FA9AE701F079
:101C6000D3FA97E7142284F84C2083F311882B468B
:101C70002A4629462046FFF76BFE85F31188E9E6E0
:101C80005DB1152284F84C2083F311880021204691
:101C9000D4E91423FFF75CFEFDE60B2284F84C2008
:101CA00083F311882B462A4629462046FFF762FE19
:101CB000E3E700BFA43D0008A03D00089C3D0008EC
:101CC00038B590F84C300446002B3ED0063BDAB2D3
:101CD0000F2A34D80F2B32D8DFE803F03731310820
:101CE000223231313131313131313737456DB0F850
:101CF00062309D4214D2C3681B8AB5FBF3F203FB2A
:101D000012556DB9302383F311882B462A46294694
:101D1000FFF730FE85F311880A2384F84C300EE07B
:101D2000142384F84C30302383F311880023204699
:101D30001A461946FFF70CFE002383F3118838BDBD
:101D4000836D03B198470023E7E70021204601F0A7
:101D500065FA0021204601F057FA63681B6813B149
:101D60000621204698470623D7E7000010B590F8D3
:101D70004C300446142B29D017D8062B05D001D897
:101D80001BB110BD093B022BFBD80021204601F0FE
:101D900045FA0021204601F037FA63681B6813B149
:101DA000062120469847062319E0152BE9D10B237D
:101DB00080F84C30302383F3118800231A461946EB
:101DC000FFF7D8FD002383F31188DAE7C3689B6926
:101DD0005B68002BD5D1836D03B19847002384F84D
:101DE0004C30CEE700238268037503691B6899684D
:101DF0009142FBD25A68036042601060586070479D
:101E000000238268037503691B6899689142FBD8B7
:101E10005A680360426010605860704708B5084611
:101E2000302383F311880B7D032B05D0042B0DD0B9
:101E30002BB983F3118808BD8B6900221A604FF01B
:101E4000FF338361FFF7CEFF0023F2E7D1E90032D1
:101E500013605A60F3E70000FFF7C4BF054BD96871
:101E600008751868026853601A600122D86002750C
:101E7000FEF758BA582802200C4B30B5DD684B1CD1
:101E800087B004460FD02B46094A684600F04EF949
:101E90002046FFF7E3FF009B13B1684600F050F9BE
:101EA000A86907B030BDFFF7D9FFF9E7582802202D
:101EB0001D1E0008044B1A68DB6890689B689842F6
:101EC00094BF00200120704758280220084B10B50D
:101ED0001C68D868226853601A600122DC60227591
:101EE000FFF78EFF01462046BDE81040FEF71ABA04
:101EF0005828022038B5074C012300250649074819
:101F00002370656001F09AFB0223237085F311882A
:101F100038BD00BFB0280220A83D00085828022084
:101F200000F044B9034A516853685B1A9842FBD8E1
:101F3000704700BF001000E08B6002230861084674
:101F40008B8270478368A3F1840243F8142C0269E2
:101F500043F8442C426943F8402C094A43F8242CA6
:101F6000C268A3F1200043F8182C022203F80C2CBD
:101F7000002203F80B2C034A43F8102C704700BFD3
:101F80003D0300085828022008B5FFF7DBFFBDE835
:101F90000840FFF761BF0000024BDB6898610F202B
:101FA000FFF75CBF58280220302383F31188FFF726
:101FB000F3BF000008B50146302383F311880820E1
:101FC000FFF75AFF002383F3118808BD064BDB6837
:101FD00039B1426818605A60136043600420FFF70B
:101FE0004BBF4FF0FF30704758280220034600686F
:101FF000834205D002681A6053608161FFF72CBFED
:102000007047000038B504460D462068844200D170
:1020100038BD036823605C608561FFF71DFFF4E74E
:10202000036810B59C68A2420CD85C680B608A609B
:102030004C60216059609968891A99604FF0FF33AC
:10204000836010BD121B1B68ECE700000A2938BF33
:102050000A2170B504460D460A26601901F0E8FA17
:1020600001F0D4FA041BA54203D8751C04462E4681
:10207000F3E70A2E04D90120BDE8704001F01EBB31
:1020800070BD0000F8B5144B14460A270D46D961FF
:102090000A2C826003F1100238BF0A2442601A69D8
:1020A000026050601861081901F0B4FA01F0AEFA4C
:1020B000431B0646A34206D37C1C281927463546F7
:1020C00001F0B6FAF2E70A2F04D90120BDE8F84082
:1020D00001F0F4BAF8BD00BF5828022070B50D46D3
:1020E000064601F093FA0F490B4653F8102F9A4217
:1020F00006D12A4601463046BDE87040FFF7C2BF10
:10210000CB69C41A93682C1928BF2C46A34202D964
:102110002946FFF79BFF224631460348BDE8704041
:10212000FFF77EBF5828022068280220C0E9032359
:10213000002310B45DF8044B4361FFF7CFBF0000EC
:1021400010B5194C236998420DD08168D0E900324E
:1021500013605A609A680A449A60002303604FF043
:10216000FF33A36110BD0268234643F8102F53606C
:102170000022026022699A4203D1BDE8104001F0BA
:1021800051BA936881680B44936001F03FFA226969
:10219000E1699268441AA242E4D91144BDE81040B2
:1021A000091AFFF753BF00BF582802202DE9F04756
:1021B000DFF8B88008F110072B4ED8F8105001F066
:1021C00025FAD8F81C40AA68011B8A423DD814445D
:1021D000D5E90032C8F81C4013605A6000232B6018
:1021E0009946D8F81020B24201D101F01BFA89F3C8
:1021F0001188D5E9033128469847302383F31188A5
:102200006B69002BD9D001F001FA6A69A0EB0409CF
:1022100082464A450DD2022001F050FA0022D8F839
:102220001030B34208D151462846BDE8F047FFF7C9
:1022300029BF2244121AF2E712EB0909294638464F
:1022400038BF4A46FFF7ECFEB6E7D8F81010B142A7
:1022500008D01444C8F81C00211AA960BDE8F04752
:10226000FFF7F4BEBDE8F087682802205828022056
:1022700000207047FEE70000704700004FF0FF307D
:102280007047000002290CD0032904D00129074817
:1022900018BF00207047032A05D8054800EBC2008C
:1022A0007047044870470020704700BF643E000834
:1022B0003C220220183E000870B59AB00546084638
:1022C000144601A900F0BEF801A8FEF7AFFD431CBB
:1022D0000022C6B25B001046C5E900342370032318
:1022E000023404F8013C01ABD1B202348E4201D871
:1022F0001AB070BD13F8011B013204F8010C04F888
:10230000021CF1E708B5302383F311880348FFF777
:1023100055FA002383F3118808BD00BF482B022023
:1023200090F85C3003F01F02012A07D190F85D207D
:102330000B2A03D10023C0E9143315E003F0600336
:10234000202B08D1B0F860302BB990F85D20212AFD
:1023500003D81F2A04D8FFF711BA222AEBD0FAE7D4
:10236000034A02650722426583650120704700BF6A
:102370005C22022010B50446052916D8DFE801F0DA
:1023800016150316161D302383F311880E4A0121FA
:10239000FFF7B8FA20460D4A0221FFF7B3FA0C48BE
:1023A000FFF7D6F9002383F3118810BD302383F3A0
:1023B00011880748FFF7A2F9F4E7302383F3118867
:1023C0000348FFF7B9F9EDE7F03D0008CC3D000800
:1023D000482B022038B50B4D0B4C2A460B492046A2
:1023E000FFF76AFF05F1CA0204F108000849FFF788
:1023F00063FF05F5CA7204F110000649BDE83840D4
:10240000FFF75ABFE828022044220220E43C0008DB
:10241000EE3C0008F93C000870B5044608460D463D
:10242000FEF704FDC6B22046013403780BB9184606
:1024300070BD32462946FEF7E5FC0028F3D10120A5
:10244000F6E700002DE9F04105460C46FEF7EEFCEC
:102450002A49C6B22846FFF7DFFF08B10736F6B2B1
:1024600027492846FFF7D8FF08B11036F6B2632E89
:1024700007D8224FDFF888802E7846B92670BDE84D
:10248000F08129462046BDE8F041FDF765BF252EC5
:1024900030D1072239462846FEF7B4FC70B9194BF3
:1024A000224603F10C0153F8040B8B4242F8040B53
:1024B000F9D11B8807350E341380DDE70822414629
:1024C0002846FEF79FFCA8B9A21C0F4B0F48104EE0
:1024D000197802320909415C02F8041C13F8011B47
:1024E00001F00F01B342415C02F8031CF0D1183433
:1024F0000835C1E7013504F8016BBDE7023D00086E
:10250000F93C00080A3D000820F4F01F193D0008BE
:102510002CF4F01FBFF34F8F024AD368DB03FCD4C7
:10252000704700BF003C024008B5074B1B7853B909
:10253000FFF7F0FF054B1A69002A04DA044A5A60D3
:1025400002F188325A6008BDF0330220003C02409C
:102550002301674508B5054B1B7833B9FFF7DAFF50
:10256000034A136943F00043136108BDF0330220AE
:10257000003C02400B28F0B515D80C4C0C492378D0
:1025800073B90E460B4D4FF00062013355F8047BD2
:1025900046F8042BDBB23A440C2BF6D1012323700E
:1025A00051F82000F0BD0020FCE700BFF13302200D
:1025B000F4330220803E0008014B53F8200070479E
:1025C000803E00080C2070470B2810B5044601D946
:1025D000002010BDFFF7CEFF064B53F824301844FF
:1025E000C21A0BB90120F4E712680132F0D1043BA2
:1025F000F6E700BF803E00080B2810B5044621D83E
:10260000FFF788FFFFF790FF0F4AF323D360C30063
:10261000DBB243F4007343F002031361136943F424
:1026200080331361FFF776FFFFF7A4FF074B53F8E2
:10263000241000F0D5F82046FFF78CFFBDE81040CD
:10264000FFF7C2BF002010BD003C0240803E0008E2
:10265000F8B5D507144641D48318B3F1026F3DD8BD
:102660002B4B1B68DA0739D5FFF75EFF294FF323A1
:1026700040F20126FB60FFF74DFF032C15D824F034
:102680000104401A234D40F201170C44A14201EB12
:1026900000062B6924D123F0010301202B61FFF7F1
:1026A00059FFF8BD043C0430E7E78307E7D13B69F5
:1026B00023F440733B613B6933433B6151F8045B56
:1026C0000560BFF34F8FFFF725FF03689D42E9D0F8
:1026D0003B6923F001033B61FFF73CFF0020E0E78B
:1026E00023F440732B612B693B432B610B883380B0
:1026F000BFF34F8FFFF70EFF3688B6B231F8023BBB
:10270000B342C3D02B6923F001032B61E4E700BF80
:1027100000380240003C0240084908B50B7828B157
:102720001BB9FFF701FF01230B7008BD002BFCD084
:102730000870BDE80840FFF70DBF00BFF03302206E
:102740000244074BD2B210B5904200D110BD441CD8
:1027500000B253F8200041F8040BE0B2F4E700BFE8
:10276000502800400F4B30B51C6F240407D41C6F59
:1027700044F400741C671C6F44F400441C670A4C4A
:1027800002442368D2B243F480732360074B904223
:1027900000D130BD441C51F8045B00B243F8205016
:1027A000E0B2F4E7003802400070004050280040DA
:1027B00007B5012201A90020FFF7C2FF019803B06D
:1027C0005DF804FB13B50446FFF7F2FFA04205D005
:1027D000012201A900200194FFF7C4FF02B010BD3F
:1027E0000144BFF34F8F064B884204D3BFF34F8F92
:1027F000BFF36F8F7047C3F85C022030F4E700BF6F
:1028000000ED00E0034B1A681AB9034AD2F87428A5
:102810001A607047243402200030024008B5FFF7E8
:10282000F1FF024B1868C0F3407008BD2434022049
:1028300070B5BFF34F8FBFF36F8F1A4A0021C2F8F4
:102840005012BFF34F8FBFF36F8F536943F40033C0
:102850005361BFF34F8FBFF36F8FC2F88410BFF384
:102860004F8FD2F8803043F6E074C3F3C900C3F34E
:102870004E335B0103EA0406014646EA81750139DD
:10288000C2F86052F9D2203B13F1200FF2D1BFF30E
:102890004F8F536943F480335361BFF34F8FBFF3BE
:1028A0006F8F70BD00ED00E0FEE70000214B224875
:1028B000224A70B5904237D3214BC11EDA1C121A3E
:1028C00022F003028B4238BF00220021FEF7B0FA4B
:1028D0001C4A0023C2F88430BFF34F8FD2F88030F7
:1028E00043F6E074C3F3C900C3F34E335B0103EA5C
:1028F0000406014646EA81750139C2F86C52F9D2E4
:10290000203B13F1200FF2D1BFF34F8FBFF36F8F36
:10291000BFF34F8FBFF36F8F0023C2F85032BFF366
:102920004F8FBFF36F8F70BD53F8041B40F8041B2B
:10293000C0E700BF7C40000838350220383502204F
:102940003835022000ED00E070B5D0E91B430022CD
:102950004FF0FF359E6804EB42135101D3F8000994
:10296000002805DAD3F8000940F08040C3F80009D8
:10297000D3F8000B002805DAD3F8000B40F08040B4
:10298000C3F8000B01326318B242C3F80859C3F808
:10299000085BE0D94FF00113C4F81C3870BD00008B
:1029A000890141F02001016103699B06FCD41220DA
:1029B000FFF7B8BA10B5054C2046FEF77FFF4FF081
:1029C000A043E366024B236710BD00BF40340220E2
:1029D000B03E000870B503780546012B50D12A4B54
:1029E000C46E98421BD1294B0E2143205A6B42F0F2
:1029F00080025A635A6D42F080025A655A6D5A69D4
:102A000042F080025A615A6922F080025A615B6981
:102A100000F022FC1E4BE3601E4BC4F8003800237C
:102A2000EE6EC4F8003EC02323604FF40413A3638A
:102A30003369002BFCDA01230C203361FFF772FAB3
:102A40003369DB07FCD41220FFF76CFA3369002BE3
:102A5000FCDA00262846A660FFF776FF6B68C4F80C
:102A60001068DB68C4F81468C4F81C684BB90A4BDA
:102A7000A3614FF0FF336361A36843F00103A360D8
:102A800070BD064BF4E700BF40340220003802401E
:102A90004014004003002002003C30C0083C30C01D
:102AA000F8B5C46E054600214FF000662046FFF7DA
:102AB00077FF296F00234FF001128F684FF0FF302E
:102AC000C4F83438C4F81C2804EB431201339F4285
:102AD000C2F80069C2F8006BC2F80809C2F8080B16
:102AE000F2D20B68EA6E6B6763621023136116699A
:102AF00016F01006FBD11220FFF714FAD4F80038B4
:102B000023F4FE63C4F80038A36943F4402343F080
:102B10001003A3610923C4F81038C4F814380A4B11
:102B2000EB604FF0C043C4F8103B084BC4F8003BC7
:102B3000C4F81069C4F800396B6F03F1100243F454
:102B400080136A67A362F8BDBC3E00084080001095
:102B5000C26E90F86610D2F8003823F4FE6343EAA0
:102B60000113C2F8003870472DE9F84300EB8103E8
:102B70000C460FFA81F9C56ED968002280466001C3
:102B80000E6806F00306731E022B05EB441398BF74
:102B9000B604C3F8102B04F110024FF0010394BFE8
:102BA00006F18056334E03FA02F38A6998BF06F5A0
:102BB0000046002A39D04F8A04F1580237435201A7
:102BC000AF50D5F81C2813430022C5F81C382B1829
:102BD0000127C3F81029A7404A69631E92B30A8AE5
:102BE0004033898B9208012905EB830388BF4A4350
:102BF000D8F87410501841EA0241C8F87400284609
:102C000059602146FFF7CCFE08EB8900C3681B8A98
:102C100043EA84534834334364012B51D5F81C38BC
:102C20003B43C5F81C38BDE8F88305EB4917D7F8D6
:102C3000002B22F40042C7F8002BD5F81C2822EA0A
:102C40000303C1E704F13F030B4A2146284605EB85
:102C500083035A60FFF7A4FE05EB4913D3F800295C
:102C600022F40042C3F80029D5F81C3823EA0703F0
:102C7000D7E700BF0080001000040002026F126856
:102C80004267FFF761BE00005831C36E49015B58CF
:102C900013F4004004D013F4001F14BF01200220DD
:102CA000704700004831C36E49015B5813F400407F
:102CB00004D013F4001F14BF01200220704700004D
:102CC00000EB8100C368196A0B6813604B6853609E
:102CD0007047000000EB810330B5DD68AA69136816
:102CE000D36019B9402B84BF402313606B8A1468EA
:102CF000C26E1C4402EB4110013C09B2B4FBF3F478
:102D00006343033323F0030343EAC44343F0C04364
:102D1000C0F8103B2B6803F00303012B0ED1D2F84F
:102D2000083802EB411013F4807FD0F8003B14BF49
:102D300043F0805343F00053C0F8003B02EB4112D4
:102D4000D2F8003B43F00443C2F8003B30BD000022
:102D50002DE9F041234D0446EE6E06EB4013D3F807
:102D6000087B3807C3F8087B0AD5D6F8143819074A
:102D700006D505EB840321462846DB685B68984747
:102D8000FA071FD5D6F81438DB071BD505EB8403EB
:102D9000D9688B69C4B9488A5A68B2FBF0F600FB5F
:102DA00016228AB91868DA6890420DD2121AC3E95D
:102DB0000024302383F311880A482146FFF78AFF55
:102DC00084F31188BDE8F08101226B89A24023EAD7
:102DD00002036B81CB68002BF4D021460148BDE88B
:102DE000F04118474034022000EB81034A0170B5DE
:102DF000DD68C36E6C692668E6604EBB1A444FF40A
:102E00000020C2F810092A6802F00302012A0AB25F
:102E10000ED1D3F8080803EB421410F4807FD4F8E5
:102E2000000914BF40F0805040F00050C4F8000981
:102E300003EB4212D2F8000940F00440C2F8000946
:102E40000122D3F834088A400243C3F8342870BD05
:102E500019B9402E84BF4020206020681A442E8A71
:102E60008419013CB4FBF6F440EAC44040F0005041
:102E7000C7E700002DE9F8433A4D04464701EE6EDE
:102E800006EB4013D3F8088918F0010FC3F808893E
:102E90001AD0D6F81038DB0716D505EB8003D968B1
:102EA0004B691868DA68904230D2121A4FF0000964
:102EB0001A60C3F80490302383F311882146284612
:102EC000FFF792FF89F3118818F0800F1CD0D6F815
:102ED00034380126A640334216D005EB8403013472
:102EE000ED6ED3F80CC0E4B22F44DCF8142005EBEF
:102EF0000434D2F800E05168714514D3D5F8343861
:102F000023EA0603C5F83438BDE8F88301222B898B
:102F1000A24023EA02032B818B68002BD4D02146E8
:102F200028469847D0E7AEEB0103BCF81000834277
:102F300028BF0346D7F8180980B2B3EB800FE3D857
:102F40009068A0F1040959F8048FC4F80080A0EB40
:102F500009089844B8F1040FF5D818441944906052
:102F60005160C8E7403402202DE9F047A54CE56EDA
:102F70006E69AB691E4016F480586E6106D020461B
:102F8000FEF70AFDBDE8F04700F054BC002E12DA4F
:102F9000D5F8003E9B0705D0D5F8003E23F003038B
:102FA000C5F8003ED5F80438964823F00103C5F86B
:102FB0000438FEF71DFD370505D59248FFF7C4FC20
:102FC0009048FEF703FDB0040CD5D5F8083813F08F
:102FD000060FEB6823F470530CBF43F4105343F413
:102FE000A053EB6031071BD56368DB681BB9AB6985
:102FF00023F00803AB612378052B0CD1D5F8003EF4
:103000009A0705D0D5F8003E23F00303C5F8003E2B
:103010007C48FEF7EDFC6368DB680BB179489847A4
:10302000F30232D50021D4F86C900F4609EB471318
:10303000D3F8002902F44022B2F5802F1ED1D3F834
:103040000029002A1ADAD3F8002942F09042C3F886
:103050000029D3F80029002AFBDBE06EFFF7A0FC73
:1030600001222389BA4023EA0203238104EB870368
:10307000DB689B6813B13946624898470137236F74
:10308000FFB29B689F423946D0D9B70225D5D4F804
:103090006C9000274FF0010A09EB4712D2F8003B71
:1030A00003F44023B3F5802F11D1D2F8003B002B5D
:1030B0000DDA63890AFA07F223EA0203638104EB5B
:1030C0008703DB68DB6813B139464E489847013700
:1030D000236FFFB29B689F42DED9F00616D5E76EDC
:1030E0003A6AC2F30A1002F00F0302F4F012B2F5CA
:1030F000802F5DD0B2F5402F08D104EB830300226E
:1031000007F58057DB681B6A904244D13303D5F83A
:1031100018481DD5E70302D50020FFF719FEA503C7
:1031200002D50120FFF714FE600302D50220FFF74D
:103130000FFE210302D50320FFF70AFEE20202D5AB
:103140000420FFF705FEA30202D50520FFF700FECD
:1031500077037FF517AFE60702D50020FFF78AFE59
:10316000A50702D50120FFF785FE600702D50220E2
:10317000FFF780FE210702D50320FFF77BFEE20662
:1031800002D50420FFF776FEA3067FF5FBAE0520EF
:10319000FFF770FEF6E6910701D1D7F80080072A05
:1031A00002F101029CBF03F8018B4FEA1828ABE73C
:1031B000023307F5805704EB83025268D2F818C037
:1031C000DCF80820DCE9001CA1EB0C0C0021884293
:1031D0000AD104EB830463689B699A6802449A608D
:1031E0005A6802445A6091E711F0030F01D1D7F8F1
:1031F00000808C4501F1010184BF02F8018B4FEA88
:103200001828E4E740340220C36E03EB4111D1F8E3
:10321000003B43F40013C1F8003B7047C36E03EB5F
:103220004111D1F8003943F40013C1F80039704757
:10323000C36E03EB4111D1F8003B23F40013C1F836
:10324000003B7047C36E03EB4111D1F8003923F402
:103250000013C1F800397047090100F160430122F1
:1032600003F56143C9B283F8001300F01F039A40CD
:1032700043099B0003F1604303F56143C3F88021D8
:103280001A60704730B50433039C0172002104FBBF
:103290000325C160C0E90653049B0363059BC0E995
:1032A0000000C0E90422C0E90842C0E90A114363F2
:1032B00030BD00000022416AC260C0E90411C0E9CB
:1032C0000A226FF00101FEF79DBE0000D0E9043232
:1032D000934201D1C2680AB9181D70470020704797
:1032E000036919600021C2680132C260C2691344D7
:1032F00082699342036124BF436A0361FEF776BE8D
:1033000038B504460D46E3683BB162690020131DE1
:103310001268A3621344E36207E0237A33B92946B3
:103320002046FEF753FE0028EDDA38BD6FF00100AD
:10333000FBE70000C368C269013BC36043691344F3
:1033400082699342436124BF436A436100238362DD
:10335000036B03B11847704770B53023044683F3FD
:103360001188866A3EB9FFF7CBFF054618B186F390
:103370001188284670BDA36AE26A13F8015B934284
:10338000A36202D32046FFF7D5FF002383F3118801
:10339000EFE700002DE9F84F04460F4691469A46A4
:1033A0004FF0300888F311880026B346A56A4DB95E
:1033B00051462046FFF7A4FF20B185F3118830461F
:1033C000BDE8F88FD4E90A15A9EB06036D1A9D42F2
:1033D00028BF1D46402D1AD93B4601F1400251F845
:1033E000040B914243F8040BF9D1A36A40374036ED
:1033F0004033E26AA3629A4202D82046FFF79AFF5E
:103400008BF311884E45DAD288F31188CEE738461F
:103410002A46FDF7EDFCA36A2F442E442B44E8E72F
:1034200010B5029C0433017203FB0421C460C0E99F
:1034300006130023C0E90A33039B0363049BC0E91E
:103440000000C0E90422C0E90842436310BD000047
:10345000026A6FF00101C260426AC0E904220022E0
:10346000C0E90A22FEF7CEBD0346D0E9042082421D
:1034700001D1DB681BB950F8043B0B607047002397
:103480001846FAE7C3680021C2690133C360436983
:10349000134482699342436124BF436A4361FEF748
:1034A000A5BD000038B504460D46E3683BB123696D
:1034B00000201A1DA262E2691344E36207E0237A46
:1034C00033B929462046FEF781FD0028EDDA38BDE4
:1034D0006FF00100FBE7000003691960C268013A60
:1034E000C260C269134482699342036124BF436A84
:1034F000036100238362036B03B118477047000028
:1035000070B530230D460446114683F31188866A50
:103510002EB9FFF7C7FF10B186F3118870BDA36AFB
:103520001D70A36AE26A01339342A36204D3E16986
:1035300020460439FFF7D0FF002080F31188EDE723
:103540002DE9F84F05460C4691469A464FF0300853
:1035500088F311880027BB46AE6A4EB9514628460B
:10356000FFF7A0FF20B186F311883846BDE8F88F39
:10357000D5E90A06A9EB0703361A9E4228BF1E4664
:10358000402E1AD904F1400354F8042B9C4240F811
:10359000042BF9D1AB6A40374033EA6AAB629A42F6
:1035A00004D8E96928460439FFF796FF8BF31188A0
:1035B0004F45DAD288F31188CEE721463246FDF72F
:1035C00017FCAB6A344437443344E6E7D0E90421BE
:1035D00003468A4216D1C068A8B1986A98B10438E7
:1035E000801A10D010600120D9680139D960D969DA
:1035F0000A4499698A421A6124BF5A6A1A610022F0
:103600009A6270470020704700F03EB94FF0804347
:10361000586A70474FF08043002258631A610222B3
:10362000DA6070474FF080430022DA607047000094
:103630004FF0804358637047FEE7000070B50025E7
:1036400004461A4B86B085620E460163586000F04E
:10365000C9F804F11003A560E562C4E904334FF032
:10366000FF33C4E90044C4E90635FFF7CFFF2B461A
:10367000024604F134012046C4E9082380230C4AA1
:103680002565FEF759FC01230A4AE06000920375A4
:10369000684672680192B268CDE90223064BCDE913
:1036A0000435FEF771FC06B070BD00BFB0280220E3
:1036B0002A3D00082F3D000839360008024AD36A27
:1036C0000343D362704700BF582802204B68436011
:1036D0008B688360CB68C3600B6943614B6903628D
:1036E0008B6943620B6803607047000008B52B4B81
:1036F00040F2FF712A481A690A431A611A696FF386
:103700000A021A611A691A6B0A431A631A6D0A438C
:103710001A65244A1B6D1146FFF7D8FF00F580603B
:1037200002F11C01FFF7D2FF00F5806002F13801C1
:10373000FFF7CCFF00F5806002F15401FFF7C6FFF0
:1037400000F5806002F17001FFF7C0FF00F58060B6
:1037500002F18C01FFF7BAFF00F5806002F1A801C9
:10376000FFF7B4FF00F5806002F1C401FFF7AEFF80
:1037700000F5806002F1E001FFF7A8FF00F580602E
:1037800002F1FC01FFF7A2FF02F58C7100F58060E9
:10379000FFF79CFFBDE8084000F0ECB8003802409D
:1037A00000000240E03E000808B500F065FAFEF7B0
:1037B000A1FBFFF727F8BDE80840FEF70BBE0000AD
:1037C00070470000EFF30983054968334A6B22F024
:1037D00001024A6383F30988002383F31188704749
:1037E00000EF00E0302080F3118862B60D4B0E4AE6
:1037F000D96821F4E0610904090C0A430B49DA6035
:10380000D3F8FC2042F08072C3F8FC20084AC2F8CA
:10381000B01F116841F0010111602022DA7783F8AE
:103820002200704700ED00E00003FA0555CEACC55C
:10383000001000E0302310B583F311880E4B5B6855
:1038400013F4006314D0F1EE103AEFF309844FF053
:103850008073683CE361094BDB6B236684F3098862
:10386000FEF728FB10B1064BA36110BD054BFBE72B
:1038700083F31188F9E700BF00ED00E000EF00E0FE
:103880004F030008520300080F4B1A6C42F001026C
:103890001A641A6E42F001021A660C4A1B6E936893
:1038A00043F0010393604FF080436B229A624FF024
:1038B000FF32DA6200229A615A63DA605A600122AA
:1038C0005A611A60704700BF00380240002004E0CF
:1038D0004FF0804208B51169D3680B40D9B29B07FD
:1038E0006FEA0101116107D5302383F31188FEF7D8
:1038F00017FB002383F3118808BD00001B4B4FF01A
:10390000FF3000211A696FEA42526FEA52521A617F
:103910001A69C2F30A021A611A695A6958615A6926
:1039200059615A691A6A62F080521A621A6A02F080
:1039300080521A621A6A5A6A58625A6A59625A6AF4
:103940000B4A106840F480701060186F00F44070EB
:10395000B0F5007F03D04FF48030186719675368C3
:1039600023F40073536000F05FB900BF00380240D9
:1039700000700040364B4FF44041364A1A64364AD4
:1039800011601A6842F001021A601A689207FCD5A9
:103990009A6822F003029A602D4B9A6812F00C028A
:1039A000FBD1196801F0F90119609A601A6842F4B4
:1039B00080321A601A689003FCD55A6F42F00102F7
:1039C0005A67234B5A6F9107FCD5244A5A601A68EC
:1039D00042F080721A60204B5A685204FCD51A6873
:1039E00042F480321A605A68D003FCD51A6842F457
:1039F00000321A60184A53689903FCD5144B1A68B0
:103A00009201FCD5164A9A6040F20112C3F88C204C
:103A10000022C3F8902040F20733124A1360136863
:103A200003F00F03072BFAD1094B9A6842F0020208
:103A30009A609A6802F00C02082AFAD15A6C42F491
:103A400080425A645A6E42F480425A665B6E7047F6
:103A5000003802400004001000700040086C40096B
:103A600000948838003C0240074A08B5536903F0C7
:103A70000103536123B1054A13680BB1506898479D
:103A8000BDE80840FFF7D6BE003C0140B834022034
:103A9000074A08B5536903F00203536123B1054A8D
:103AA00093680BB1D0689847BDE80840FFF7C2BEE5
:103AB000003C0140B8340220074A08B5536903F0BE
:103AC0000403536123B1054A13690BB15069984748
:103AD000BDE80840FFF7AEBE003C0140B83402200C
:103AE000074A08B5536903F00803536123B1054A37
:103AF00093690BB1D0699847BDE80840FFF79ABEBB
:103B0000003C0140B8340220074A08B5536903F06D
:103B10001003536123B1054A136A0BB1506A9847E9
:103B2000BDE80840FFF786BE003C0140B8340220E3
:103B3000164B10B55C6904F478725A61A30604D57B
:103B4000134A936A0BB1D06A9847600604D5104AAD
:103B5000136B0BB1506B9847210604D50C4A936B3D
:103B60000BB1D06B9847E20504D5094A136C0BB131
:103B7000506C9847A30504D5054A936C0BB1D06CE3
:103B80009847BDE81040FFF755BE00BF003C01401C
:103B9000B8340220194B10B55C6904F47C425A61B8
:103BA000620504D5164A136D0BB1506D9847230575
:103BB00004D5134A936D0BB1D06D9847E00404D53A
:103BC0000F4A136E0BB1506E9847A10404D50C4AEE
:103BD000936E0BB1D06E9847620404D5084A136FF8
:103BE0000BB1506F9847230404D5054A936F0BB16E
:103BF000D06F9847BDE81040FFF71CBE003C014065
:103C0000B834022008B50348FDF768FABDE808405B
:103C1000FFF710BEDC25022008B5FFF759FEBDE80E
:103C20000840FFF707BE0000062108B50846FFF769
:103C300013FB06210720FFF70FFB06210820FFF7E3
:103C40000BFB06210920FFF707FB06210A20FFF7DF
:103C500003FB06211720FFF7FFFA06212820FFF7B4
:103C6000FBFA07211C20FFF7F7FA0C215220BDE8D0
:103C70000840FFF7F1BA000008B5FFF73FFE00F07B
:103C80000DF8FDF747FCFDF717FEFDF7EFFCFFF71A
:103C900097FDBDE80840FFF7B7BC00000023054AC8
:103CA00019460133102BC2E9001102F10802F8D1C4
:103CB000704700BFB834022053544D3332463F3F63
:103CC0003F3F3F3F0053544D333246375B347C35E2
:103CD0005D780053544D333246375B367C375D7820
:103CE000006330004172647550696C6F7400254246
:103CF0004F415244252D424C002553455249414CD9
:103D0000250025424F41524425004D6174656B46A4
:103D10003736352D57696E670030313233343536DA
:103D2000373839414243444546006D61696E006948
:103D3000646C6500009600000000000000000000B8
:103D40000000000000000000000000000000000073
:103D5000D5140008C1140008FD140008E914000877
:103D6000F5140008E1140008CD140008B914000887
:103D70000915000800000000E9150008D515000825
:103D800011160008FD15000809160008F5150008B1
:103D9000E1150008CD1500081D16000801000000FF
:103DA0000000000000000000E13C0008482602205E
:103DB0005828022040340220010102007523000827
:103DC00085220008212300080523000803000000C5
:103DD00000000000B51800080000000010000000FE
:103DE000B8280220000000000100000000000000D0
:103DF0000200000000000000091800087118000807
:103E000040004000D8280220C828022002000000FC
:103E1000000000000403090443000000203E0008E5
:103E200009024300020100C032090400000102023D
:103E300001000524001001052401000104240202F0
:103E40000524060001070582030800FF090401009C
:103E5000020A000000070501024000000705810278
:103E600040000000120000006C3E0008120110012A
:103E70000200004009124157000201020301000044
:103E80000080000000800000008000000080000032
:103E90000000020000000400000004000000040014
:103EA0000000040000000400000004000000040002
:103EB000800000004001000005000000000000003C
:103EC000091A0008C11C00086D1D000840004000D0
:103ED0003034022030340220010000002834022057
:103EE0000000802A00000000AAAAAAAA000000245C
:103EF000FFFF00000000000000A00A000000000119
:103F000000000000AAAAAAAA00000001FFFF00000A
:103F100000000000000000000001000000000000A0
:103F2000AAAAAAAA00010000FFFF000000000000EA
:103F3000000000000040100000000000AAAAAAAA89
:103F400000400000FFFB0000000000000000000037
:103F50000081424000000000AAAAAAAA0040410035
:103F6000FF7F00000000008008000000000000004B
:103F700000000000AAAAAAAA00000000FFFF00009B
:103F80000000000000000000000000000000000031
:103F9000AAAAAAAA00000000FFFF0000000000007B
:103FA000000000000000000000000000AAAAAAAA69
:103FB00000000000FFFF0000000000000000000003
:103FC0000000000000000000AAAAAAAA0000000049
:103FD000FFFF0000000000000000000000000000E3
:103FE00000000000000000000000000000000000D1
:103FF00000000000000000000000000000000000C1
:1040000000000000000000000000000000000000B0
:1040100000000000000000008F0000000000000011
:1040200000801E0000000000FF000000482B02205E
:10403000DC25022000000000B83C00084904000014
:10404000C53C000851040000D33C00080096000065
:104050000000080004000000143E000800000000FA
:104060000000000000000000000000000000000050
:0C407000000000000096000000000800A6
:00000001FF
